S019000041524455494E4F5F424152454D4554414C2E737265630D
S11300000C9434000C943E000C943E000C943E007E
S11300100C943E000C943E000C943E000C943E0064
S11300200C943E000C943E000C943E000C943E0054
S11300300C943E000C943E000C943E000C943E0044
S11300400C943E000C943E000C943E000C943E0034
S11300500C943E000C943E000C943E000C943E0024
S11300600C943E000C943E0011241FBECFEFD8E048
S1130070DEBFCDBF0E9408010C9465010C94000002
S1130080FC012081318140E050E060E472E48FE0C3
S113009090E00E94430121503109C90188279F70D3
S11300A09093C5002093C4000895CF93DF93EC018F
S11300B004960E94400088E18093C1008B818730C0
S11300C069F018F4863031F014C0883059F0893062
S11300D069F00FC082E08093C2000BC084E080937B
S11300E0C20007C086E08093C20003C08EE0809304
S11300F0C2008A81823029F4E2ECF0E080818260DF
S113010080838981813019F0823031F00AC0E2ECB9
S1130110F0E0808180628083E2ECF0E080818063A3
S113012080838881813029F4E2ECF0E0808180646E
S11301308083DF91CF9108950F931F93CF93DF9323
S1130140FC01DB01EA018B8185508430A0F020C0E2
S11301509091C00095FFFCCFEF01C40FD51F98818B
S11301609093C6009091C00096FFFCCF4F5F5F4F05
S11301706F4F7F4F03C040E050E0BA010D911D91D5
S11301802D913C911397401751076207730704F3AD
S1130190DF91CF911F910F9108950F931F93CF93E8
S11301A0DF93DC01EB01FA0183818550843080F018
S11301B01BC09091C0009923E4F7FD01E40FF51FE3
S11301C09091C60090834F5F5F4F6F4F7F4F03C086
S11301D040E050E0BA01088119812A813B8140172F
S11301E05107620773072CF3DF91CF911F910F9191
S11301F00895FC011082118281E0828388E0838368
S113020080E895E295838483CF010E945500089588
S1130210CF93DF93CDB7DEB76E970FB6F894DEBFFA
S11302200FBECDBFFE01319684E1DF011D928A9598
S1130230E9F7CE0145960E94F9008BE090E0A0E03A
S1130240B0E08B8F9C8FAD8FBE8FAE014B5E5F4F46
S1130250BE01655E7F4FCE0101960E94CD00BFE7CF
S113026024E88EE1B15020408040E1F700C0000056
S1130270AE014B5E5F4FBE01655E7F4FCE010196BE
S11302800E949C00E2CFA1E21A2EAA1BBB1BFD0117
S11302900DC0AA1FBB1FEE1FFF1FA217B307E40761
S11302A0F50720F0A21BB30BE40BF50B661F771FB9
S11302B0881F991F1A9469F7609570958095909599
S11102C09B01AC01BD01CF010895F894FFCF5E
S9030000FC
