S019000041524455494E4F5F424152454D4554414C2E737265630D
S11300000C9434000C9446000C9446000C94460066
S11300100C9446000C9446000C9446000C94460044
S11300200C9446000C9446000C9446000C94460034
S11300300C9446000C9446000C9446000C94460024
S11300400C9446000C9446000C94FE000C9446005C
S11300500C9446000C9446000C9446000C94460004
S11300600C9446000C94460011241FBECFEFD8E038
S1130070DEBFCDBF21E0A0E0B1E001C01D92A731F9
S1130080B207E1F70E9445010C949F010C94000013
S1130090FC012081318140E050E060E472E48FE0B3
S11300A090E00E947D0121503109C90188279F7089
S11300B09093C5002093C4000895CF93DF93EC017F
S11300C004960E944800109201011092020188E9EE
S11300D08093C10078948B81873069F018F486305E
S11300E031F014C0883059F0893069F00FC082E0D3
S11300F08093C2000BC084E08093C20007C086E0F6
S11301008093C20003C08EE08093C2008A81823053
S113011029F4E2ECF0E0808182608083898181307F
S113012019F0823031F00AC0E2ECF0E080818062A4
S11301308083E2ECF0E08081806380838881813079
S113014029F4E2ECF0E0808180648083DF91CF9138
S113015008950F931F93CF93DF93FC01DB01EA0112
S11301608B8185508430A0F020C09091C00095FF11
S1130170FCCFEF01C40FD51F98819093C6009091D6
S1130180C00096FFFCCF4F5F5F4F6F4F7F4F03C0A0
S113019040E050E0BA010D911D912D913C911397CF
S11301A0401751076207730704F3DF91CF911F9142
S11301B00F910895DC01E09101010E2E000CFF0B5C
S11301C0ED5FFE4FE081F0E09AE001900D929A9588
S11301D0E1F7109200018AE090E0A0E0B0E0FB01BA
S11301E080839183A283B38380910101865F80938E
S11301F00101843114F01092010108951F920F92AD
S11302000FB60F9211242F938F939F93EF93FF9325
S113021090910201E92F092E000CFF0B8091C6007A
S1130220ED5FFE4F808387E69802812D112485952A
S1130230859597FD8395880F282F220F220F820F13
S1130240981303C081E0809300019F5F90930201A3
S1130250943114F010920201FF91EF919F918F91CC
S11302602F910F900FBE0F901F901895FC011082D4
S1130270118281E0828388E0838380E895E295831C
S11302808483CF010E945D000895CF93DF93CDB79F
S1130290DEB76E970FB6F894DEBF0FBECDBFFE017A
S11302A0319684E1DF011D928A95E9F7CE014596E6
S11302B00E9436011B8E1C8E1D8E1E8E80910001A5
S11302C0882339F0BE01655E7F4FCE0101960E94FE
S11302D0DA00BFE724E88EE1B15020408040E1F726
S11302E000C00000AE014B5E5F4FBE01655E7F4FF4
S11302F0CE0101960E94A900E1CFA1E21A2EAA1B09
S1130300BB1BFD010DC0AA1FBB1FEE1FFF1FA217C1
S1130310B307E407F50720F0A21BB30BE40BF50BBE
S1130320661F771F881F991F1A9469F76095709547
S1130330809590959B01AC01BD01CF010895F8947F
S1050340FFCFE9
S9030000FC
