S019000041524455494E4F5F424152454D4554414C2E737265630D
S11300000C9434000C9446000C9446000C94460066
S11300100C9446000C9446000C9446000C94460044
S11300200C9446000C9446000C9446000C94460034
S11300300C9446000C9446000C9446000C94460024
S11300400C9446000C9446000C94A9000C944600B1
S11300500C9446000C9446000C9446000C94460004
S11300600C9446000C94460011241FBECFEFD8E038
S1130070DEBFCDBF21E0A0E0B1E001C01D92A631FA
S1130080B207E1F70E94DC000C9413010C94000009
S1130090FC012081318140E050E060E472E48FE0B3
S11300A090E00E94F10021503109C90188279F7016
S11300B09093C5002093C4000895CF93DF93EC017F
S11300C004960E944800109200011092010188E9F0
S11300D08093C10078948B81873069F018F486305E
S11300E031F014C0883059F0893069F00FC082E0D3
S11300F08093C2000BC084E08093C20007C086E0F6
S11301008093C20003C08EE08093C2008A81823053
S113011029F4E2ECF0E0808182608083898181307F
S113012019F0823031F00AC0E2ECF0E080818062A4
S11301308083E2ECF0E08081806380838881813079
S113014029F4E2ECF0E0808180648083DF91CF9138
S113015008951F920F920FB60F9211248F939F93BD
S1130160EF93FF9380910101E82F082E000CFF0B01
S11301709091C600EE5FFE4F90838F5F80930101E4
S1130180843114F010920101FF91EF919F918F91AE
S11301900F900FBE0F901F901895FC0110821182D2
S11301A081E0828388E0838380E895E29583848379
S11301B0CF010E945D000895CF93DF9300D000D05B
S11301C000D0CDB7DEB7CE0101960E94CD002FE757
S11301D084E89EE1215080409040E1F700C0000097
S11301E0F6CFA1E21A2EAA1BBB1BFD010DC0AA1F4C
S11301F0BB1FEE1FFF1FA217B307E407F50720F08C
S1130200A21BB30BE40BF50B661F771F881F991F06
S11302101A9469F760957095809590959B01AC014F
S10D0220BD01CF010895F894FFCF4B
S9030000FC
